:020000040800F2
:100000000050002045210008DD200008DF20000806
:10001000E1200008E3200008E520000800000000BF
:10002000000000000000000000000000E7200008C1
:10003000E920000800000000EB200008ED20000887
:100040008D2100088D2100088D2100088D210008D8
:100050008D2100088D2100088D2100088D210008C8
:100060008D2100088D2100088D2100088D210008B8
:100070008D2100088D2100088D2100088D210008A8
:100080008D2100088D2100088D2100088D21000898
:100090008D2100088D2100088D2100088D21000888
:1000A0008D2100088D2100088D2100088D21000878
:1000B0008D2100088D2100088D2100088D21000868
:1000C0008D2100088D2100088D2100088D21000858
:1000D0008D2100088D2100088D2100088D21000848
:1000E000F12000088D2100088D210008000000008B
:1000F0000000000000000000000000000000000000
:0C01000000000000000000005FF808F1A3
:10010C0010B5054C237833B9044B13B10448AFF345
:10011C0000800123237010BD280000200000000087
:10012C00E821000808B5034B1BB103490348AFF3A2
:10013C00008008BD000000002C000020E821000811
:10014C0081F0004102E000BF83F0004330B54FEA7C
:10015C0041044FEA430594EA050F08BF90EA020FE9
:10016C001FBF54EA000C55EA020C7FEA645C7FEA7C
:10017C00655C00F0E2804FEA5454D4EB5555B8BF9F
:10018C006D420CDD2C4480EA020281EA030382EA10
:10019C00000083EA010180EA020281EA0303362DA2
:1001AC0088BF30BD11F0004F4FEA01314FF4801C75
:1001BC004CEA113102D0404261EB410113F0004F87
:1001CC004FEA03334CEA133302D0524263EB43033E
:1001DC0094EA050F00F0A780A4F10104D5F1200EDC
:1001EC000DDB02FA0EFC22FA05F2801841F1000137
:1001FC0003FA0EF2801843FA05F359410EE0A5F10B
:10020C0020050EF1200E012A03FA0EFC28BF4CF03B
:10021C00020C43FA05F3C01851EBE37101F00045F1
:10022C0007D54FF0000EDCF1000C7EEB00006EEBFE
:10023C000101B1F5801F1BD3B1F5001F0CD3490888
:10024C005FEA30004FEA3C0C04F101044FEA4452DF
:10025C0012F5800F80F09A80BCF1004F08BF5FEA66
:10026C00500C50F1000041EB045141EA050130BD46
:10027C005FEA4C0C404141EB010111F4801FA4F1E9
:10028C000104E9D191F0000F04BF01460020B1FA3E
:10029C0081F308BF2033A3F10B03B3F120020CDA76
:1002AC000C3208DD02F1140CC2F10C0201FA0CF054
:1002BC0021FA02F10CE002F11402D8BFC2F1200CB9
:1002CC0001FA02F120FA0CFCDCBF41EA0C0190406F
:1002DC00E41AA2BF01EB0451294330BD6FEA0404B8
:1002EC001F3C1CDA0C340EDC04F11404C4F12002A3
:1002FC0020FA04F001FA02F340EA030021FA04F3B5
:10030C0045EA030130BDC4F10C04C4F1200220FA0B
:10031C0002F001FA04F340EA0300294630BD21FA49
:10032C0004F0294630BD94F0000F83F4801306BF0F
:10033C0081F480110134013D4EE77FEA645C18BF03
:10034C007FEA655C29D094EA050F08BF90EA020F9A
:10035C0005D054EA000C04BF1946104630BD91EA92
:10036C00030F1EBF0021002030BD5FEA545C05D195
:10037C004000494128BF41F0004130BD14F58004D4
:10038C003CBF01F5801130BD01F0004545F0FE4148
:10039C0041F470014FF0000030BD7FEA645C1ABF7D
:1003AC00194610467FEA655C1CBF0B46024650EAB4
:1003BC00013406BF52EA033591EA030F41F40021E0
:1003CC0030BD00BF90F0000F04BF0021704730B566
:1003DC004FF4806404F132044FF000054FF000013B
:1003EC0050E700BF90F0000F04BF0021704730B5FC
:1003FC004FF4806404F1320410F0004548BF4042D1
:10040C004FF000013EE700BF42004FEAE2014FEA25
:10041C0031014FEA02701FBF12F07F4393F07F4F00
:10042C0081F06051704792F0000F14BF93F07F4F32
:10043C00704730B54FF4607401F0004521F0004175
:10044C0020E700BF50EA010208BF704730B54FF0FB
:10045C0000050AE050EA010208BF704730B511F000
:10046C00004502D5404261EB41014FF4806404F138
:10047C0032045FEA915C3FF4DCAE4FF003025FEABA
:10048C00DC0C18BF03325FEADC0C18BF033202EB42
:10049C00DC02C2F1200300FA03FC20FA02F001FA9C
:1004AC0003FE40EA0E0021FA02F11444C1E600BF3B
:1004BC0038B50E4B054618784FF47A73B3FBF0F34E
:1004CC000B4A1068B0FBF3F000F050FA044658B930
:1004DC000F2D09D8024629464FF0FF3000F006FADE
:1004EC00044B20461D6038BD012038BD00000020A3
:1004FC002400002004000020074A08B513680320DC
:10050C0043F01003136000F0DFF90020FFF7D0FF79
:10051C0001F0C6FC002008BD00200240034A044B39
:10052C0011681B780B441360704700BF4400002017
:10053C0000000020014B1868704700BF44000020E9
:10054C000368D86C70470000002373B5019390F8D2
:10055C002430012B74D001234D6880F82430062DF3
:10056C0002684FEA85030C6825D82B441F25566B6F
:10057C00053B9D4026EA050504FA03F32B43536320
:10058C00092C4FEA44038D682FD907262344D168E0
:10059C001E3B9E4021EA060105FA03F30B43D36090
:1005AC00A4F11003012B2BD90023002280F8242066
:1005BC00184602B070BD0C2D0BD82B441F25166BA2
:1005CC00233B9D4026EA050504FA03F32B431363F2
:1005DC00D6E72B441F25D66A413B9D4026EA0505EC
:1005EC0004FA03F32B43D362CAE7072611692344A9
:1005FC009E4021EA060105FA03F30B431361CFE792
:10060C00104B9A4216D193681B02CDD49368102CD0
:10061C0043F400039360C7D10B4B0C4A1B68B3FB2C
:10062C00F2F20A2353430193019B002BBCD0019B94
:10063C00013BF8E7836A43F0200383620123B4E7AC
:10064C000223B5E7002401402400002040420F00A3
:10065C00002373B50193036804469A68D20702D548
:10066C00002002B070BD9A6842F001029A60124BF1
:10067C00124A1B68B3FBF2F30193019BC3B9FFF75A
:10068C0059FF064623689D6815F00105E8D1FFF770
:10069C0051FF801B0228F5D9A36A84F8245043F03B
:1006AC001003A362E36A012043F00103E362D8E77D
:1006BC00019B013BE0E700BF2400002040420F00FB
:1006CC0090F8243010B5012B044654D0012380F847
:1006DC002430FFF7BDFF002849D1A36A274A23F431
:1006EC00407323F0010343F48073A36223689342A5
:1006FC0004D123494A6812F4702F2ED1A26A22F435
:10070C008012A2625A68520541BFA26A22F440527A
:10071C0042F48052A262A26A12F480521CBFE26AB6
:10072C0022F00602E262002284F824206FF002021A
:10073C001A609A6802F46022B2F5602F13D10F4A46
:10074C00934205D1A2F58062526812F4702F0AD13F
:10075C009A6842F4A0029A6010BDA26A42F4801218
:10076C00A2624A68CFE79A6842F48012F3E700234A
:10077C0084F8243010BD022010BD00BF00280140B9
:10078C000024014038B5036804469A68D20701D4A6
:10079C00002038BD9A6822F001029A60FFF7CAFE69
:1007AC00054623689B68DB07F2D5FFF7C3FE401BA9
:1007BC000228F6D9A36A012043F01003A362E36A6E
:1007CC0043F00103E36238BD70B50446002871D0D4
:1007DC00836A23B9C36280F8243001F083FB20467E
:1007EC00FFF7D0FFA36A13F0100FA36A64D100289F
:1007FC0062D1E16923F48853626823F0020343F069
:10080C0002030A43A168A362E368B1F5807F42EA60
:10081C00430238D0012914BF06464FF4807665692F
:10082C00012D07D1002B30D1A369013B46EA43359A
:10083C0045F400662368B1F5807F5D6825F4694551
:10084C0045EA06055D609E681D4D05EA060545EA0C
:10085C0002059D6001D0012920D1216901390905CA
:10086C00DD6A25F470052943D9629968154B0B4054
:10087C009A4215D10023E362A36A23F0030343F0E9
:10088C000103A36270BD0E46C9E7A36A43F02003BF
:10089C00A362E36A43F00103E362CBE70021DFE7E5
:1008AC00A36A23F0120343F01003A362E36A43F03C
:1008BC000103E362012070BD43F01003A362F9E76A
:1008CC00FDF7E1FFFE0E1FFF074A0002D36800F49C
:1008DC00E06023F4E0631B041B0C43F0BF6343F4A0
:1008EC0000330343D360704700ED00E0174B30B585
:1008FC00DC68C4F30224C4F10703251D042B28BFB4
:10090C000423062D4FF0010598BF002405FA03F3CC
:10091C0003F1FF3388BF033C1940A14005FA04F4EE
:10092C00013C2240002842EA01024FEA0212AFBF0A
:10093C0000F16040064B00F00F00D2B2A5BFD2B25E
:10094C0000F561401A5480F8002330BD00ED00E042
:10095C0014ED00E00123420900F01F0003FA00F03F
:10096C00014B43F82200704700E100E00138B0F180
:10097C00807F0AD2F021064B064A586082F8231079
:10098C000020072298601A6070470120704700BF52
:10099C0010E000E000ED00E02DE9F74F00221646D4
:1009AC00654BDFF8A4E1DFF8A4C14FF001080C6837
:1009BC0008FA06F808EA0404A0457FD14D68122D08
:1009CC0000F0AF8000F28880022D00F0A7807CD868
:1009DC00002D00F08E80012D00F09E804FF00F094D
:1009EC00FF2C93BF824606F18045083DD0F800B03D
:1009FC0092BFB500D0F804B0AD0009FA05F82BEAA7
:100A0C00080802FA05F588BF00F1040A48EA050552
:100A1C00CAF80050D1F804A01AF0805F4ED0474DB0
:100A2C00464FAD6926F0030845F00105BD61BD696F
:100A3C0008F1804805F00105019508F5803806F0AD
:100A4C00030B019D4FEA8B0BD8F8085009FA0BF9F0
:100A5C0025EA09093A4DA84268D005F58065A842F7
:100A6C0066D005F58065A84264D005F58065A8427E
:100A7C000CBF0325042505FA0BF545EA0905C8F852
:100A8C0008501D681AF4803F14BF2543A5431D6010
:100A9C005D681AF4003F14BF2543A5435D609D6853
:100AAC001AF4801F14BF2543A5439D60DD681AF41A
:100ABC00001F14BF2C4325EA0404DC600136102E01
:100ACC007FF473AF03B0BDE8F08F032D22D0112D4E
:100ADC0084D1CA68043281E71A4FBD4209D012D8BA
:100AEC00DFF86C904D4504D009F580394D457FF405
:100AFC0075AF8A68C2B1012A0CBFC0F81080C0F86B
:100B0C00148008226AE77545F3D06545F1D0DFF80B
:100B1C004490EBE7002261E7CA685FE7CA680832D5
:100B2C005CE7CA680C3259E7042257E70025A2E7B4
:100B3C000125A0E702259EE70004014000100240B9
:100B4C00000801400000211000003110000032109C
:100B5C0000001110000022100AB101617047090455
:100B6C00FBE7704708B5044B5969014202D0586144
:100B7C00FFF7F7FF08BD00BF0004014003682DE933
:100B8C00F341DB07054610D42B689F075ED42B6816
:100B9C00190700F195802B685A0700F1BF80EA69AC
:100BAC00002A40F02D81002014E0904C636803F083
:100BBC000C03042B07D0636803F00C03082B0CD137
:100BCC006368DE0309D523689C03DDD56B68002BB5
:100BDC00DAD1012002B0BDE8F0816B68B3F5803F3B
:100BEC0010D1236843F480332360FFF7A3FC06463F
:100BFC0023689803C8D4FFF79DFC801B6428F7D9A1
:100C0C000320E7E79BB9236823F480332360236830
:100C1C0023F480232360FFF78DFC06462368990399
:100C2C00B2D5FFF787FC801B6428F7D9E8E7B3F54A
:100C3C00A02F236803D143F480232360D1E723F44E
:100C4C0080332360236823F48023CDE7674C6368EB
:100C5C0013F00C0F07D0636803F00C03082B10D1B2
:100C6C006368DA030DD423689B0702D52B69012B2B
:100C7C00AFD123686A6923F0F80343EAC203236007
:100C8C0085E72A695A4B6AB101221A60FFF752FCB8
:100C9C00064623689F07ECD4FFF74CFC801B022808
:100CAC00F7D9ADE71A60FFF745FC064623689807AD
:100CBC007FF56DAFFFF73EFC801B0228F6D99FE74E
:100CCC00AA694A4C4B4BDAB101221A60FFF732FC8D
:100CDC000646636A9B070DD54FF4FA52464B1B68C8
:100CEC00B3FBF2F3019300BF019B5A1E0192002B40
:100CFC00F9D150E7FFF71EFC801B0228E9D97FE7EA
:100D0C001A60FFF717FC0646636A9F077FF543AF2F
:100D1C00FFF710FC801B0228F6D971E7334CE3690E
:100D2C00D80024D40127E36943F08053E361E369DD
:100D3C0003F080530093009B304E3368D90518D5CF
:100D4C00EB68012B26D1236A43F001032362FFF7E2
:100D5C00F1FB41F288368046236A9B073FD5002F72
:100D6C003FF41DAFE36923F08053E36117E70027DD
:100D7C00E2E7336843F480733360FFF7DBFB8046B4
:100D8C003368DA05DCD4FFF7D5FBA0EB0800642848
:100D9C00F6D935E7ABB9236A41F2883823F0010361
:100DAC002362236A23F004032362FFF7C3FB064686
:100DBC00236A9807D3D5FFF7BDFB801B4045F7D9B5
:100DCC001EE7052B236A03D143F004032362BAE721
:100DDC0023F001032362236A23F00403B6E7FFF731
:100DEC00A9FBA0EB0800B042B6D909E700100240FD
:100DFC000000424280044242240000200070004067
:100E0C00224C636803F00C03082B3FF4E2AE002382
:100E1C001F4E022A33602BD1FFF78CFB0746236849
:100E2C0099011FD42B6AB3F5803F05D16268A9687C
:100E3C0022F400320A436260696A62680B4322F44E
:100E4C0074121343636001233360FFF773FB054691
:100E5C0023689A013FF5A7AEFFF76CFB401B0228F5
:100E6C00F6D9CDE6FFF766FBC01B0228D7D9C7E63B
:100E7C00FFF760FB054623689B017FF594AEFFF7F7
:100E8C0059FB401B0228F6D9BAE600BF00100240FD
:100E9C006000424230B5194B87B002AC03F110052B
:100EAC00224618685968083303C2AB421446F7D17E
:100EBC0001238DF80430022311498DF805304B685D
:100ECC0003F00C02082A17D1C3F3834206A802448C
:100EDC00DB0312F8102C0CD54B680A48C3F34043C3
:100EEC00504306AA134413F8143CB0FBF3F007B0BC
:100EFC0030BD05485043FAE70248F8E700220008E5
:100F0C000010024000127A0000093D00544A2DE9FD
:100F1C00F0411368054603F007038B420E462AD3B3
:100F2C0029688C0734D4CA0747D44D4A136803F098
:100F3C0007039E42C0F082802A684A4C12F0040FCC
:100F4C0040F08780130706D563682A6923F4605341
:100F5C0043EAC2036360FFF79DFF6368424AC3F331
:100F6C000313D35CD840414B18600020FFF7A0FA64
:100F7C000020BDE8F081136823F007030B431360D6
:100F8C00136803F007039942CAD00120BDE8F08131
:100F9C00344B11F0040F1EBF5A6842F4E0625A60E1
:100FAC00080742BF5A6842F460525A605A68A868EF
:100FBC0022F0F00202435A60B5E76A68294C012A14
:100FCC0023681CD113F4003FDFD0636841F28838EA
:100FDC0023F0030313436360FFF7ACFA6B68074617
:100FEC00012B14D1636803F00C03042B9DD0FFF785
:100FFC00A1FAC01B4045F5D90320BDE8F081022AB7
:10100C0002D113F0007FDFE713F0020FDCE7022BB5
:10101C000FD1636803F00C03082B86D0FFF78AFA14
:10102C00C01B4045F5D9E7E7FFF784FAC01B4045E4
:10103C00E2D8636813F00C0FF6D176E7136823F04F
:10104C00070333431360136803F007039E429CD1DC
:10105C0072E76368E96823F4E0630B43636071E74C
:10106C000020024000100240102200082400002042
:10107C00044B054A5B68C3F30223D35C034A106834
:10108C00D8407047001002402022000824000020A5
:10109C00044B054A5B68C3F3C223D35C034A106854
:1010AC00D840704700100240202200082400002085
:1010BC0003682DE9F341D907054620D5354CE36982
:1010CC00DA0032D40127E36943F08053E361E3692A
:1010DC0003F080530193019B2F4E3368DB0526D51B
:1010EC00236A13F4407336D1236A6A6823F440737D
:1010FC00134323621FB1E36923F08053E361286833
:10110C00830706D5234AA968536823F440430B434D
:10111C00536010F010001BD01E4AE9685368002081
:10112C0023F480030B43536012E00027D4E73368A9
:10113C0043F480733360FFF7FDF980463368D805BC
:10114C00CED4FFF7F7F9A0EB08006428F6D90320FA
:10115C0002B0BDE8F0816A6802F440729342C3D0D9
:10116C0001200E4A236A1060002023F440711060A5
:10117C002162D907B8D5FFF7DDF941F28838064668
:10118C00236A9A07B0D4FFF7D5F9801B4045F7D9ED
:10119C00DDE700BF001002400070004040044242F6
:1011AC00036A70B523F001030362036A4468826921
:1011BC000D6822F073022A438D6823F002032B433F
:1011CC000A4DA8420BD1CD6823F008032B438E693E
:1011DC004D6924F44074354323F004032C434460DC
:1011EC0082614A684263036270BD00BF002C0140FB
:1011FC00036A70B523F480730362036A4468C2699E
:10120C000D6822F073022A438D6823F4007343EABD
:10121C0005230B4DA8420DD1CD6823F4006343EA9E
:10122C0005238E694D6924F44054354323F48063BF
:10123C0044EA05144460C2614A68C263036270BD2B
:10124C00002C0140036A30B523F480530362036A17
:10125C004468C2690D6822F4E64242EA05228D68B0
:10126C0023F4005343EA0533064DA84202BF4D69EF
:10127C0024F4804444EA85144460C2614A680264E0
:10128C00036230BD002C0140704790F83C3070B5C3
:10129C00012B4FF002031CD0012280F83D30036873
:1012AC0080F83C209A6822F47F4222F077029A6000
:1012BC000A68402A79D019D8102A00F093800AD8ED
:1012CC00002A00F08980012380F83D30002380F84B
:1012DC003C30184670BD202A00F08A80302AF2D1AA
:1012EC009A6822F0700242F0370236E0702A36D04B
:1012FC001BD8502A42D0602AE5D11C6A4D6824F0D4
:10130C001004CE681C6299691A6A21F4704122F0AB
:10131C00A00242EA051241EA063199611A629A6802
:10132C0022F0700242F0670217E0B2F5805F11D034
:10133C00B2F5005FC7D18A684D689C68C9682A43BA
:10134C0024F47F4442EA012222439A609A6842F4D0
:10135C00804202E09A6822F007029A60B3E78A683A
:10136C004D689C68C9682A4324F47F4442EA0122F0
:10137C0022439A609A6842F07702EEE74C68CE6896
:10138C00196A1D6A21F00A0125F001051D629A698E
:10139C00214322F0F00242EA06129A6119629A681D
:1013AC0022F0700242F05702D7E74C68CE68196AF7
:1013BC001D6A21F00A0125F001051D629A6921437D
:1013CC0022F0F00242EA06129A6119629A6822F03F
:1013DC00700242F04702C0E79A6822F0700242F0B5
:1013EC000702BAE79A6822F0700242F01702B4E7DB
:1013FC009A6822F0700242F02702AEE71A4A03689C
:10140C0090420AD0B0F1804F07D0A2F594329042AE
:10141C0003D002F58062904215D14A6823F0700324
:10142C001343114A90420AD0B0F1804F07D0A2F575
:10143C009432904203D002F58062904203D1CA6884
:10144C0023F4407313434A6923F08003134303606E
:10145C008B68C3620B688362034B984204BF0B69B1
:10146C000363012343617047002C014010B504460F
:10147C00A0B190F83D3003F0FF021BB980F83C207E
:10148C0000F05EFD0223206884F83D30211DFFF73B
:10149C00B5FF0123002084F83D3010BD012010BDA4
:1014AC0010B50446A0B190F83D3003F0FF021BB913
:1014BC0080F83C20FFF7E8FE0223206884F83D30DA
:1014CC00211DFFF79BFF0123002084F83D3010BD48
:1014DC00012010BD036A70B523F010030362036A88
:1014EC00446882690D6822F4E64242EA05228D685E
:1014FC0023F0200343EA05130B4DA8420DD1CD6810
:10150C0023F0800343EA05138E694D6924F440648B
:10151C00354323F0400344EA8504446082614A6801
:10152C008263036270BD00BF002C014038B590F897
:10153C003C300446012B4FF0020025D0012384F8E7
:10154C003D0084F83C300C2A18D8DFE802F007176D
:10155C0017171E1717172F17171740002068FFF7BC
:10156C001FFE236809699A6942F008029A619A6918
:10157C0022F004029A619A690A439A6101230020BD
:10158C0084F83D3084F83C0038BD2068FFF7A2FF9A
:10159C00236809699A6942F400629A619A6922F493
:1015AC0080629A619A6942EA0122E6E72068FFF7B5
:1015BC001FFE23680969DA6942F00802DA61DA6908
:1015CC0022F00402DA61DA690A43DA61D6E72068AC
:1015DC00FFF738FE23680969DA6942F40062DA61C0
:1015EC00DA6922F48062DA61DA6942EA0122ECE714
:1015FC0010B50124036A8C4023EA04030362036AD6
:10160C008A401A43026210BD10B5044601220068DC
:10161C00FFF7EEFF2368064A0020934202BF5A6C84
:10162C0042F400425A641A6842F001021A6010BD7A
:10163C00002C014090F83C30012B1FD0CB688A68FD
:10164C0023F4407313434A6823F4806313430A68FA
:10165C0023F4006313430A6923F4805313434A6948
:10166C0023F4005313438A6923F440431343026861
:10167C005364002380F83C301846704702207047B2
:10168C0090F83C3010B5012B4FF0020318D080F8C5
:10169C003D3003680C685A68496822F070025A6041
:1016AC005A6822435A609A6822F080029A609A68BB
:1016BC000A439A60012380F83D30002380F83C30C7
:1016CC00184610BD2DE9F0470568C2682B69016901
:1016DC0023F4405313432B618368EA680B4341693D
:1016EC0022F4B05222F00C020B431343EB606B69F3
:1016FC00826923F4407313436B61404B81469D42D6
:10170C004FF0190446D1FFF7C3FC04FB00F3D9F8E2
:10171C0004604FF06408B600B3FBF6F3B3FBF8F3C8
:10172C001E01FFF7B5FC6043D9F804309B00B0FBF9
:10173C00F3F7FFF7ADFC6043D9F804309B00B0FB26
:10174C00F3F3B3FBF8F308FB13731B013233B3FB56
:10175C00F8F303F0F007FFF79BFC6043D9F8042083
:10176C009200B0FBF2FAFFF793FC6043D9F8043017
:10177C009B00B0FBF3F3B3FBF8F308FB13A31B01C3
:10178C003233B3FBF8F303F00F033B433344AB604A
:10179C00BDE8F087FFF76CFC04FB00F3D9F804609C
:1017AC004FF06408B600B3FBF6F3B3FBF8F31E017D
:1017BC00FFF75EFC6043D9F804309B00B0FBF3F7F5
:1017CC00FFF756FC6043D9F804309B00B0FBF3F3F1
:1017DC00B3FBF8F308FB13731B013233B3FBF8F3C1
:1017EC0003F0F007FFF744FC6043D9F804209200A3
:1017FC00B0FBF2FAFFF73CFCB7E700BF0038014042
:10180C00F8B504460E4617461D4621680B6836EAA5
:10181C00030301D10020F8BD6B1CF7D095B92368E8
:10182C000320DA6822F4D072DA605A6922F00102DD
:10183C005A61202384F8393084F83A30002384F834
:10184C003830F8BDFEF776FEC01B8542DDD2E6E7E8
:10185C0010B5044640B390F8393003F0FF021BB9C1
:10186C0080F8382000F004FC2423226884F83930F6
:10187C00D368204623F40053D360FFF723FF23687B
:10188C0000201A6922F490421A615A6922F02A0245
:10189C005A61DA6842F40052DA602023E06384F87B
:1018AC00393084F83A3010BD012010BD2DE9F041DB
:1018BC001F4690F83A300446202B0D46904651D1E5
:1018CC0000294CD0002A4AD090F83830012B49D04E
:1018DC00012380F838300023C363222380F83A3088
:1018EC00FEF728FE0646A4F82C80A4F82E80E08D86
:1018FC0080B230B9202384F8380084F83A30BDE83F
:10190C00F081E38D3246013B9BB2E385A368202135
:10191C00B3F5805F20463B4612D1FFF771FF10B143
:10192C000320BDE8F081236822695B6822B9C3F308
:10193C00080325F8023BDAE7DBB225F8013BD6E7D2
:10194C00FFF75EFF0028EBD1236821696A1C5B68F6
:10195C0011B92B701546CAE703F07F03F9E7012094
:10196C00BDE8F0810220BDE8F081000010B5054C07
:10197C002046FEF7A5FE2046FEF7E2FDFEF722FD0F
:10198C0010BD00BF48000020282230B595B00DEBEB
:10199C000200002100F01AFC142210240DEB0200AE
:1019AC00002100F013FC2246002101A800F00EFCDF
:1019BC00022501230AA80E930F940A951195FFF79F
:1019CC00DDF80F23002405934FF48063214605A80E
:1019DC000893069507940994FFF798FA01A80195C6
:1019EC000394FFF765FB15B030BD00002DE980486E
:1019FC009BB0FEF781FDFFF7C7FF1022002113A853
:101A0C0000F0E4FBBA4B00249A694FF4005642F004
:101A1C0010029A619A69202102F010020292029A35
:101A2C009A69B44842F020029A619A69012702F03F
:101A3C0020020392039A9A69AF4D42F004029A6114
:101A4C009A694FF0040802F004020492049A9A690D
:101A5C0044F61F6B42F008029A619B69002203F066
:101A6C0008030593059BFFF777F8A44B13A9A4482B
:101A7C00139614931594FEF78FFF202313930223D0
:101A8C0013A99C48169314971594FEF785FF2246CC
:101A9C0021462820FEF72AFF2820FEF75BFF994BF2
:101AAC0028462B604FF46023AC60EB61EC606C61FA
:101ABC006C602F61139414941594FEF785FE13A992
:101ACC002846CDF84C8014971594FEF73DFD214621
:101ADC00102208A800F07AFB21461C220CA80694C0
:101AEC00079400F073FB1C22214613A800F06EFB38
:101AFC00854F864B4FF4805A3B6007234FF06009AB
:101B0C0038467B600193BC603C617C61BC61C7F86A
:101B1C000CB0FFF7ABFC08A93846CDF820A0FFF7B6
:101B2C00B4FB3846FFF7BCFC06A93846069407946C
:101B3C00FFF7A6FD0C220CA93846CDF830900D9479
:101B4C000E94109411941294FFF7F0FC13A93846DC
:101B5C001394149415941694179418961994FFF7DB
:101B6C0069FD384600F020FA214610220CA800F03E
:101B7C002DFB21461C2213A80894099400F026FB87
:101B8C004FF08042624E019B304673603260B4600D
:101B9C003461B461C6F80CB0FFF768FC0CA9304690
:101BAC00CDF830A0FFF771FB3046FFF779FC08A9A0
:101BBC00304608940994FFF763FD224613A930467A
:101BCC00CDF84C90149415941794FFF7AFFC424643
:101BDC0013A93046FFF7AAFC304600F0E5F9214680
:101BEC0010220CA84B4D00F0F1FA21461C2213A830
:101BFC000894099400F0EAFA474A019B28462A60A7
:101C0C006B60AC602C61AC61C5F80CB0FFF72EFCBE
:101C1C000CA92846CDF830A0FFF737FB2846FFF774
:101C2C003FFC08A9284608940994FFF729FD0923CD
:101C3C00224613A928461493CDF84C90159417946A
:101C4C00FFF774FC424613A928461494FFF76EFC68
:101C5C00082213A92846FFF769FC0C2213A9284671
:101C6C00FFF764FC284600F09FF94FF00C094FF485
:101C7C00E1332A482A49846080E80A00C460046180
:101C8C00C0F814908461C461FFF7E2FD2146284638
:101C9C00FFF7BAFC41462846FFF7B6FC0821284658
:101CAC00FFF7B2FC49462846FFF7AEFC49463846DA
:101CBC00FFF7AAFC21463046FFF7A6FC4146DFF8A9
:101CCC0068803046FFF7A0FCC146164C44F62063F2
:101CDC00182214491148FFF7E9FD64204FF47A7C6F
:101CEC00227894F801E0303AAEF1300E1EE000BFDD
:101CFC0000100240000801404800002000001110B4
:101D0C000010014000240140B8000020002C0140CC
:101D1C00F80000207800002000040040380100206A
:101D2C0000440040800100201000002000FB0EFE4B
:101D3C000CFB02E24FF00A0EA378E178303B0EFB6D
:101D4C00032330390B444F4932680B600B685363E3
:101D5C0094F804A094F805B0AAF1300AABF1300B5A
:101D6C0000FB0BFB0CFB0ABAA379E179303B0EFBB1
:101D7C0003A330390B444449DFF81CA10B600B68FA
:101D8C00C3F53B630833CAF800300B689363DAF889
:101D9C0000202B685A6394F808A094F809B0AAF1B3
:101DAC00300AABF1300B00FB0BFB0CFB0ABAA17A2F
:101DBC00E27A30390EFB01A1303A1144334A1160FA
:101DCC0012689A6394F80CA094F80DB0AAF1300A3A
:101DDC00ABF1300B00FB0BF00CFB0A00A27BE17BA0
:101DEC00303A0EFB020230390A4464214FF47A7EF9
:101DFC00C8F80020D8F80020B2F5FA5F81BFD8F8F7
:101E0C000020A2F50C52283AC8F80020D9F800207E
:101E1C00DA63207C94F811A03038AAF1300A01FB67
:101E2C000AFA0EFB00AA0A20A27C94F813C0303ADE
:101E3C0000FB02A2ACF1300C6244DFF860C0CCF8BD
:101E4C000020DCF800201A6494F814C094F815A053
:101E5C00ACF1300CAAF1300A01FB0AF10EFB0C11AB
:101E6C00A37DE27D303B00FB0313303A1344084A58
:101E7C00136012683B681A64FFF778FD054BC3E9E1
:101E8C00000123E7180000201C0000200C0000209B
:101E9C000800002078010020200000201400002001
:101EAC000E4B82B09A6942F001029A619A6902F073
:101EBC0001020092009ADA6942F08052DA61DB6921
:101ECC00074A03F080530193019B536823F0E063AE
:101EDC0043F00073536002B0704700BF0010024023
:101EEC000000014030B51024054687B02246002181
:101EFC0002A800F06BF92A680F4B9A421AD103F52D
:101F0C006C439A6902A942F400729A619A690B486F
:101F1C0002F400720092009A9A6942F004029A61EB
:101F2C009B69029403F004030193019B0323039325
:101F3C00FEF732FD07B030BD00240140000801401F
:101F4C000368164A84B093420BD1154B9A6942F43C
:101F5C0000629A619B6903F400630193019B04B0D6
:101F6C007047B3F1804F0BD103F50433DA6942F0BB
:101F7C000102DA61DB6903F001030293029BEEE7D5
:101F8C00084A9342EBD1064BDA6942F00202DA615D
:101F9C00DB6903F002030393039BE0E7002C014091
:101FAC000010024000040040102210B5044688B016
:101FBC000DEB0200002100F009F92368274A934237
:101FCC0015D1274B9A6942F004029A619B6903F080
:101FDC0004030093009B4FF40063049302232148F5
:101FEC000593079304A9FEF7D7FC08B010BDB3F115
:101FFC00804F0CD103F504339A6942F004029A61C4
:10200C009B6903F004030193019B0323E5E7164A44
:10201C009342EAD1124B02249A6904A942F00402B9
:10202C009A619A690F4802F004020292029A9A6924
:10203C0042F008029A619B69059403F0080303932C
:10204C00039BC02307940493FEF7A6FC032305947B
:10205C000493079404A90548C5E700BF002C014070
:10206C00001002400008014000040040000C014038
:10207C0010B5044686B01022002102A800F0A6F884
:10208C002268114B9A421CD103F5E633DA6902A996
:10209C0042F40032DA61DA690C4802F40032009240
:1020AC00009A9A6942F004029A619B6903F0040356
:1020BC000193019B0C230293022303930593FEF7D8
:1020CC006BFC06B010BD00BF00440040000801408E
:1020DC007047FEE7FEE7FEE7FEE770477047704784
:1020EC00FEF71CBA4FF40050FEF73CBD0F4B1A68BC
:1020FC0042F001021A6059680D4A0A405A601A6887
:10210C0022F0847222F480321A601A6822F480223F
:10211C001A605A6822F4FE025A604FF41F029A6049
:10212C004FF00062034B9A60704700BF00100240F2
:10213C000000FFF800ED00E0002103E00B4B5B58C2
:10214C00435004310A480B4B42189A42F6D30A4AC0
:10215C0002E0002342F8043B084B9A42F9D3FFF704
:10216C00C5FF00F00FF8FFF741FC70473022000864
:10217C0000000020280000202800002098010020EA
:10218C00FEE7000070B500250C4E0D4CA41BA410EE
:10219C00A54209D100F022F800250A4E0A4CA41BD6
:1021AC00A410A54205D170BD56F8253098470135CD
:1021BC00EEE756F8253098470135F2E7282200085B
:1021CC0028220008282200082C220008034602447A
:1021DC00934200D1704703F8011BF9E7F8B500BF33
:1021EC00F8BC08BC9E467047F8B500BFF8BC08BCEC
:0421FC009E46704744
:1022000002030405060708090A0B0C0D0E0F101037
:102210000000000000000000010203040607080996
:082220000000000001020304AC
:042228003101000878
:04222C000D01000898
:102230000100000010000000DC050000A406000002
:10224000DC050000DC050000DC050000DC0500000A
:08225000DC05000000A24A04B5
:040000050800214589
:00000001FF
